:020000040800F2
:1000000000C00020510D00081D0300081F03000858
:100010002103000823030008250300080000000056
:10002000000000000000000000000000270300089E
:1000300029030008000000002B0300082D0300081E
:10004000990D0008990D0008990D0008990D0008F8
:10005000990D0008990D0008990D0008990D0008E8
:10006000990D0008990D0008990D0008990D0008D8
:10007000990D0008990D0008990D0008990D0008C8
:10008000990D0008990D0008990D0008990D0008B8
:10009000990D0008990D0008990D0008990D0008A8
:1000A000990D0008990D0008990D0008990D000898
:1000B000990D0008990D0008990D0008990D000888
:1000C000990D0008990D0008990D0008990D000878
:1000D000990D0008990D0008990D0008990D000868
:1000E000990D0008990D0008990D0008990D000858
:1000F000990D0008990D0008990D0008990D000848
:10010000990D0008990D0008990D0008990D000837
:10011000990D0008990D0008990D0008990D000827
:10012000990D0008990D0008990D0008990D000817
:1001300000000000000000000000000000000000BF
:1001400000000000000000000000000000000000AF
:10015000000000000000000000000000000000009F
:10016000000000000000000000000000000000008F
:10017000000000000000000000000000000000007F
:10018000000000000000000000000000000000006F
:10019000000000000000000000000000000000005F
:1001A000000000000000000000000000000000004F
:1001B000000000000000000000000000000000003F
:1001C000000000000000000000000000000000002F
:1001D000000000000000000000000000000000001F
:0401E0005FF8E0F1F3
:1001E40010B5054C237833B9044B13B10448AFF36D
:1001F40000800123237010BD0C00002000000000CB
:10020400F40D000808B5034B1BB103490348AFF3D1
:10021400008008BD0000000010000020F40D00085C
:100224002DE9F04186B000240294039404940594CB
:100234001C4B9A6942F004029A619A6902F0040222
:100244000092009A9A6942F020029A619B6903F035
:1002540020030193019BDFF8548022464FF4807100
:10026400404600F0E7FC104D22460421284600F0E9
:10027400E1FC4FF48073029301270397049403264F
:10028400059602A9404600F0DDFB04230293039780
:100294000494059602A9284600F0D4FB06B0BDE8F4
:1002A400F08100BF0010024000140140000801402A
:1002B40010B590B02422002107A800F091FD00247D
:1002C4000194029403940494059402230693012355
:1002D4000A9310230B9306A800F0C0F80F23019390
:1002E4000294039404940594214601A800F0DCFAD6
:1002F40010B010BD08B500F063F8FFF7D9FFFFF7A1
:100304008FFF4FF48071034800F09AFCC82000F07E
:100314007BF8F6E7000801407047FEE7FEE7FEE7DA
:10032400FEE770477047704708B500F05BF808BDFA
:1003340082B00E4B9A6942F001029A619A6902F006
:1003440001020092009ADA6942F08052DA61DB69B4
:1003540003F080530193019B054A536823F0E06343
:1003640043F00073536002B0704700BF00100240B6
:100374000000014010B504460E4B18784FF47A7310
:10038400B3FBF0F30C4A1068B0FBF3F000F0A2FCEE
:1003940068B90F2C01D901200AE0002221464FF050
:1003A400FF3000F063FC054B1C60002000E00120DE
:1003B40010BD00BF00000020080000200400002041
:1003C40008B5074A136843F010031360032000F0D4
:1003D4003BFC0020FFF7CEFFFFF7AAFF002008BD7B
:1003E40000200240034A1168034B1B780B4413603E
:1003F400704700BF2800002000000020014B18684F
:10040400704700BF2800002038B50446FFF7F6FF08
:100414000546B4F1FF3F02D0044B1B781C44FFF7A0
:10042400EDFF401BA042FAD338BD00BF00000020FE
:1004340082B0084B1B68084AA2FB03235B0A00FB3B
:1004440003F0019000BF019B5A1E0192002BF9D1C9
:1004540002B0704708000020D34D621070B582B01E
:100464000446036813F0010F2CD0AB4B5B6803F018
:100474000C03042B1DD0A84B5B6803F00C03082B62
:1004840012D06368B3F5803F41D0002B55D103F1FE
:10049400804303F504331A6822F480321A601A6820
:1004A40022F480221A6037E09B4B5B6813F4803F90
:1004B400E7D0994B1B6813F4003F03D06368002B0B
:1004C40000F0AE81236813F0020F76D0924B5B6884
:1004D40013F00C0F5FD0904B5B6803F00C03082BF8
:1004E40054D02369002B00F08A808C4B01221A60BF
:1004F400FFF784FF0546884B1B6813F0020F75D184
:10050400FFF77CFF401B0228F5D903208BE1824AC8
:10051400136843F480331360636843B3FFF76EFFDB
:1005240005467D4B1B6813F4003FCBD1FFF766FFF4
:10053400401B6428F5D9032075E1B3F5A02F09D039
:10054400754B1A6822F480321A601A6822F48022E9
:100554001A60E1E703F18043A3F53C331A6842F4DF
:1005640080221A601A6842F480321A60D4E7FFF7D6
:1005740045FF0546684B1B6813F4003FA2D0FFF704
:100584003DFF401B6428F5D903204CE1624B5B68B6
:1005940013F4803FA5D1604B1B6813F0020F04D005
:1005A4002369012B01D001203DE15B4A136823F04C
:1005B400F803616943EAC1031360236813F0080F69
:1005C40032D0A369002B5BD0554B01221A60FFF790
:1005D40015FF0546504B5B6A13F0020F21D1FFF75C
:1005E4000DFF401B0228F5D903201CE14A4A136879
:1005F40023F0F803616943EAC1031360DDE7474B65
:1006040000221A60FFF7FAFE0546434B1B6813F0FD
:10061400020FD2D0FFF7F2FE401B0228F5D90320C7
:1006240001E10120FFF704FF236813F0040F00F039
:100634009780394BDB6913F0805F33D1364BDA692D
:1006440042F08052DA61DB6903F080530193019B2D
:100654000125344B1B6813F4807F25D0E368012BFC
:1006640036D0002B4CD103F1804303F504331A6ACE
:1006740022F001021A621A6A22F004021A622CE0C1
:10068400274B00221A60FFF7B9FE0546224B5B6A2E
:1006940013F0020FC8D0FFF7B1FE401B0228F5D9B2
:1006A4000320C0E00025D4E71E4A136843F4807396
:1006B4001360FFF7A3FE06461A4B1B6813F4807FF2
:1006C400CCD1FFF79BFE801B6428F5D90320AAE058
:1006D400114A136A43F001031362E36873B3FFF72B
:1006E4008DFE06460C4B1B6A13F0020F37D1FFF741
:1006F40085FE801B41F288339842F3D9032092E0AF
:10070400052B11D0044B1A6A22F001021A621A6AEC
:1007140022F004021A62E0E70010024000004242A4
:100724008004424200700040414B1A6A42F00402C5
:100734001A621A6A42F001021A62CEE7FFF75EFEFD
:1007440006463B4B1B6A13F0020F08D0FFF756FE18
:10075400801B41F288339842F3D9032063E0E5B962
:10076400E369002B5ED0324A526802F00C02082A78
:100774005BD0022B17D02F4B00221A60FFF73EFEEE
:1007840004462B4B1B6813F0007F47D0FFF736FE5F
:10079400001B0228F5D9032045E0254AD36923F03C
:1007A4008053D361DCE7234B00221A60FFF726FE57
:1007B40005461F4B1B6813F0007F06D0FFF71EFE93
:1007C400401B0228F5D903202DE0236AB3F5803FAE
:1007D4001AD017494B6823F47413226A606A0243DF
:1007E40013434B60134B01221A60FFF707FE0446C4
:1007F4000F4B1B6813F0007F0ED1FFF7FFFD001BAA
:100804000228F5D903200EE0094A536823F4003383
:10081400A1680B435360DCE7002004E0002002E001
:10082400012000E0002002B070BD0120FBE700BF02
:10083400001002406000424210B487B0164C94E8A5
:100844000F000DF1180C0CE90F00238AADF80430E9
:10085400124B5B6803F00C02082A1AD1C3F38342DB
:10086400624412F8102C13F4803F05D10C4800FBAD
:1008740002F007B010BC7047084B5B68C3F34043F9
:10088400634413F8143C074800FB02F0B0FBF3F098
:10089400EFE70448EDE700BF0C0E0008001002402B
:1008A40000093D0000127A00624B1B6803F0070345
:1008B4008B420CD25F4A136823F007030B43136087
:1008C400136803F007038B4201D00120704770B511
:1008D400036813F0020F17D013F0040F04D0564A24
:1008E400536843F4E0635360036813F0080F04D0C3
:1008F400514A536843F4605353604F4A536823F09A
:10090400F0038468234353600D460446036813F0E0
:10091400010F52D04368012B23D0022B28D0464A22
:10092400126812F0020F00F0828043494A6822F0F4
:10093400030213434B60FFF761FD06466368012B16
:100944001DD0022B2AD03C4B5B6813F00C0F34D023
:10095400FFF754FD801B41F288339842F3D90320FA
:1009640064E0354A126812F4003FDED101205DE0F4
:10097400314A126812F0007FD7D1012056E02E4B85
:100984005B6803F00C03042B17D0FFF737FD801BC3
:1009940041F288339842F2D9032047E0264B5B6842
:1009A40003F00C03082B08D0FFF728FD801B41F24D
:1009B40088339842F2D9032038E01E4B1B6803F0B9
:1009C4000703AB420CD91B4A136823F007032B43DC
:1009D4001360136803F00703AB4201D0012025E044
:1009E400236813F0040F06D0134A536823F4E0631A
:1009F400E1680B435360236813F0080F07D00E4AD5
:100A0400536823F46053216943EAC1035360FFF739
:100A140013FF094B5B68C3F30313084AD35CD84044
:100A2400074B18600020FFF7A5FC002070BD0120D3
:100A3400FCE700BF0020024000100240200E000826
:100A440008000020F0B482B000263546ABE0002C4C
:100A540063D0012C00D1CE68FF2B72D88446FF2BC3
:100A640072D8AC00DCF800200F27A74022EA070266
:100A740006FA04F42243CCF800204A6812F0805F9E
:100A840000F09080654A946944F00104946192698D
:100A940002F001020192019AAC08A71C604A52F8C4
:100AA40027C005F0030297000F22BA402CEA020C7B
:100AB4005C4A90424ED002F58062904200F08B80F6
:100AC40002F58062904200F0888002F580629042D4
:100AD40000F0858002F58062904200F0828002F589
:100AE4008062904234D0062235E04F4FBC4214D08D
:100AF4000BD94E4FBC4210D007F58037BC420CD006
:100B0400A7F58017BC42A7D107E0A7F58017BC4220
:100B140003D007F58037BC429ED18C687CB1012C90
:100B240008D04261082697E7CE68083694E7CE6875
:100B34000C3691E7026108268EE700268CE704262E
:100B44008AE700F1040C8AE7A5F10804A40089E708
:100B5400052200E00022BA4042EA0C020234304F7F
:100B640047F824204A6812F4803F3CD0304C226875
:100B74001A4322604A6812F4003F3AD02C4C62684F
:100B84001A4362604A6812F4801F38D0284CA26865
:100B94001A43A2604A6812F4001F36D0244CE2685B
:100BA4001343E36001350F2D35D80122AA400B68A9
:100BB40013409A42F6D14C68122CB8D095D8022C26
:100BC400B2D07FF644AF032CB7D0112C7FF444AFDE
:100BD400CE68043640E70122BDE70222BBE70322C8
:100BE400B9E70422B7E7124C226822EA0302226022
:100BF400C0E70F4C626822EA03026260C2E70C4C51
:100C0400A26822EA0302A260C4E7094CE26822EA6D
:100C14000303E360C6E702B0F0BC70470010024073
:100C240000000140000801400000211000003110C4
:100C34000004014012B90904016170470161704761
:100C4400C3685940C1607047074AD36823F4E0631E
:100C54001B041B0C000200F4E060184340F0BF606A
:100C640040F40030D060704700ED00E030B4174B22
:100C7400DB68C3F30223C3F10704042C28BF042454
:100C84001D1D062D18D9033B4FF0FF3505FA04F45A
:100C940021EA0401994005FA03F322EA0303194304
:100CA40000280BDB0901C9B200F1604000F5614086
:100CB40080F8001330BC70470023E5E700F00F0014
:100CC4000901C9B2024B1954F4E700BF00ED00E07A
:100CD40014ED00E00138B0F1807F0AD2064B586071
:100CE400064AF02182F823100020986007221A6037
:100CF40070470120704700BF10E000E000ED00E005
:100D04000F4B1A6842F001021A6059680D4A0A40F2
:100D14005A601A6822F0847222F480321A601A68C7
:100D240022F480221A605A6822F4FE025A604FF4B8
:100D34001F029A60044B4FF000629A60704700BF34
:100D4400001002400000FFF800ED00E0002103E085
:100D54000B4B5B58435004310A480B4B42189A42E0
:100D6400F6D30A4A02E0002342F8043B084B9A42B5
:100D7400F9D3FFF7C5FF00F00FF8FFF7BBFA704790
:100D8400380E0008000000200C0000200C00002099
:100D94002C000020FEE7000070B500250C4E0D4C21
:100DA400A41BA410A54209D100F022F800250A4E84
:100DB4000A4CA41BA410A54205D170BD56F82530D9
:100DC40098470135EEE756F8253098470135F2E7A4
:100DD400300E0008300E0008300E0008340E0008F3
:100DE40003460244934200D1704703F8011BF9E71C
:100DF400F8B500BFF8BC08BC9E467047F8B500BF04
:080E0400F8BC08BC9E467047D3
:100E0C0002030405060708090A0B0C0D0E0F10103F
:100E1C0001020000000000000000000001020304B9
:040E2C0006070809A4
:040E300009020008AB
:040E3400E5010008CC
:0C0E3800010000001000000000A24A04AD
:0400000508000D5191
:00000001FF
